{
  "contractName": "ExerciceSolution",
  "abi": [
    {
      "inputs": [],
      "name": "depositSomeTokens",
      "outputs": [],
      "stateMutability": "nonpayable",
      "type": "function"
    },
    {
      "inputs": [],
      "name": "withdrawSomeTokens",
      "outputs": [],
      "stateMutability": "nonpayable",
      "type": "function"
    },
    {
      "inputs": [],
      "name": "borrowSomeTokens",
      "outputs": [],
      "stateMutability": "nonpayable",
      "type": "function"
    },
    {
      "inputs": [],
      "name": "repaySomeTokens",
      "outputs": [],
      "stateMutability": "nonpayable",
      "type": "function"
    },
    {
      "inputs": [
        {
          "internalType": "uint256",
          "name": "amount",
          "type": "uint256"
        }
      ],
      "name": "money",
      "outputs": [],
      "stateMutability": "nonpayable",
      "type": "function"
    },
    {
      "inputs": [],
      "name": "doAFlashLoan",
      "outputs": [],
      "stateMutability": "nonpayable",
      "type": "function"
    },
    {
      "inputs": [],
      "name": "repayFlashLoan",
      "outputs": [],
      "stateMutability": "nonpayable",
      "type": "function"
    }
  ],
  "bytecode": "0x608060405273ba8dced3512925e52fe67b1b5329187589072a556000806101000a81548173ffffffffffffffffffffffffffffffffffffffff021916908373ffffffffffffffffffffffffffffffffffffffff1602179055507365afadd39029741b3b8f0756952c74678c9cec93600160006101000a81548173ffffffffffffffffffffffffffffffffffffffff021916908373ffffffffffffffffffffffffffffffffffffffff160217905550737b5c526b7f8dfdff278b4a3e045083fba4028790600260006101000a81548173ffffffffffffffffffffffffffffffffffffffff021916908373ffffffffffffffffffffffffffffffffffffffff16021790555034801561010e57600080fd5b506109278061011e6000396000f3fe608060405234801561001057600080fd5b506004361061007d5760003560e01c8063d871f5941161005b578063d871f594146100c4578063db50609f146100ce578063f6b96bae146100d8578063fc6669b6146100e25761007d565b80631a231a71146100825780634b5bd34f1461008c578063b9c679ce14610096575b600080fd5b61008a6100ec565b005b61009461021e565b005b6100c2600480360360208110156100ac57600080fd5b8101908080359060200190929190505050610479565b005b6100cc610566565b005b6100d6610568565b005b6100e06106ac565b005b6100ea6108ef565b005b600260009054906101000a900473ffffffffffffffffffffffffffffffffffffffff1673ffffffffffffffffffffffffffffffffffffffff1663a415bcad600160009054906101000a900473ffffffffffffffffffffffffffffffffffffffff16620f424060026000306040518663ffffffff1660e01b8152600401808673ffffffffffffffffffffffffffffffffffffffff1673ffffffffffffffffffffffffffffffffffffffff1681526020018581526020018481526020018361ffff1681526020018273ffffffffffffffffffffffffffffffffffffffff1673ffffffffffffffffffffffffffffffffffffffff16815260200195505050505050600060405180830381600087803b15801561020457600080fd5b505af1158015610218573d6000803e3d6000fd5b50505050565b600160009054906101000a900473ffffffffffffffffffffffffffffffffffffffff1673ffffffffffffffffffffffffffffffffffffffff1663095ea7b3600260009054906101000a900473ffffffffffffffffffffffffffffffffffffffff16620f42406040518363ffffffff1660e01b8152600401808373ffffffffffffffffffffffffffffffffffffffff1673ffffffffffffffffffffffffffffffffffffffff16815260200182815260200192505050602060405180830381600087803b1580156102ec57600080fd5b505af1158015610300573d6000803e3d6000fd5b505050506040513d602081101561031657600080fd5b810190808051906020019092919050505061033057600080fd5b600260009054906101000a900473ffffffffffffffffffffffffffffffffffffffff1673ffffffffffffffffffffffffffffffffffffffff1663573ade81600160009054906101000a900473ffffffffffffffffffffffffffffffffffffffff16620f42406002306040518563ffffffff1660e01b8152600401808573ffffffffffffffffffffffffffffffffffffffff1673ffffffffffffffffffffffffffffffffffffffff1681526020018481526020018381526020018273ffffffffffffffffffffffffffffffffffffffff1673ffffffffffffffffffffffffffffffffffffffff168152602001945050505050602060405180830381600087803b15801561043b57600080fd5b505af115801561044f573d6000803e3d6000fd5b505050506040513d602081101561046557600080fd5b810190808051906020019092919050505050565b600160009054906101000a900473ffffffffffffffffffffffffffffffffffffffff1673ffffffffffffffffffffffffffffffffffffffff1663a9059cbb33620f424084026040518363ffffffff1660e01b8152600401808373ffffffffffffffffffffffffffffffffffffffff1673ffffffffffffffffffffffffffffffffffffffff16815260200182815260200192505050602060405180830381600087803b15801561052757600080fd5b505af115801561053b573d6000803e3d6000fd5b505050506040513d602081101561055157600080fd5b81019080805190602001909291905050505050565b565b600260009054906101000a900473ffffffffffffffffffffffffffffffffffffffff1673ffffffffffffffffffffffffffffffffffffffff166369328dec6000809054906101000a900473ffffffffffffffffffffffffffffffffffffffff16676f05b59d3b200000306040518463ffffffff1660e01b8152600401808473ffffffffffffffffffffffffffffffffffffffff1673ffffffffffffffffffffffffffffffffffffffff1681526020018381526020018273ffffffffffffffffffffffffffffffffffffffff1673ffffffffffffffffffffffffffffffffffffffff1681526020019350505050602060405180830381600087803b15801561066e57600080fd5b505af1158015610682573d6000803e3d6000fd5b505050506040513d602081101561069857600080fd5b810190808051906020019092919050505050565b6000809054906101000a900473ffffffffffffffffffffffffffffffffffffffff1673ffffffffffffffffffffffffffffffffffffffff1663095ea7b3600260009054906101000a900473ffffffffffffffffffffffffffffffffffffffff16678ac7230489e800006040518363ffffffff1660e01b8152600401808373ffffffffffffffffffffffffffffffffffffffff1673ffffffffffffffffffffffffffffffffffffffff16815260200182815260200192505050602060405180830381600087803b15801561077e57600080fd5b505af1158015610792573d6000803e3d6000fd5b505050506040513d60208110156107a857600080fd5b81019080805190602001909291905050506107c257600080fd5b600260009054906101000a900473ffffffffffffffffffffffffffffffffffffffff1673ffffffffffffffffffffffffffffffffffffffff1663617ba0376000809054906101000a900473ffffffffffffffffffffffffffffffffffffffff16678ac7230489e800003060006040518563ffffffff1660e01b8152600401808573ffffffffffffffffffffffffffffffffffffffff1673ffffffffffffffffffffffffffffffffffffffff1681526020018481526020018373ffffffffffffffffffffffffffffffffffffffff1673ffffffffffffffffffffffffffffffffffffffff1681526020018261ffff168152602001945050505050600060405180830381600087803b1580156108d557600080fd5b505af11580156108e9573d6000803e3d6000fd5b50505050565b56fea2646970667358221220a091fca89e045d372787d886fc2132fce25538f4c356740c76acf19bb61c847f64736f6c63430006020033",
  "source": "pragma solidity ^0.6.0;\r\nimport \"./IExerciceSolution.sol\";\r\nimport \"./IPool.sol\";\r\nimport \"@openzeppelin/contracts/token/ERC20/ERC20.sol\";\r\n\r\ncontract ExerciceSolution is IExerciceSolution \r\n{\r\n    address DAIaddress = 0xBa8DCeD3512925e52FE67b1b5329187589072A55;\r\n    address USDCaddress = 0x65aFADD39029741B3b8f0756952C74678c9cEC93;\r\n    address Pooladdress= 0x7b5C526B7F8dfdff278b4a3e045083FBA4028790;\r\n\r\n\tfunction depositSomeTokens() external override{\r\n\r\n        require(ERC20(DAIaddress).approve(Pooladdress, 10*10**18));\r\n        IPool(Pooladdress).supply(DAIaddress, 10*10**18, address(this), 0);\r\n\r\n    }\r\n\r\n\tfunction withdrawSomeTokens() external override{\r\n        IPool(Pooladdress).withdraw(DAIaddress, 8*10**18, address(this));\r\n    }\r\n\r\n\tfunction borrowSomeTokens() external override{\r\n\r\n        IPool(Pooladdress).borrow(USDCaddress, 1*10**6, 2, 0, address(this));\r\n    }\r\n\r\n\tfunction repaySomeTokens() external override {\r\n        require(ERC20(USDCaddress).approve(Pooladdress, 1*10**6));\r\n\r\n        IPool(Pooladdress).repay(USDCaddress, 1*10**6, 2, address(this));\r\n    }\r\n\r\n    function money(uint amount) external {\r\n        ERC20(USDCaddress).transfer(msg.sender, amount*10**6);\r\n    }\r\n\r\n\r\n\tfunction doAFlashLoan() external override {\r\n\r\n    }\r\n    \r\n    function repayFlashLoan() external override {\r\n\r\n    }\r\n}\r\n\r\n",
  "sourcePath": "C:\\Users\\blanp\\OneDrive - De Vinci\\Documents\\S8\\DeFi\\lending-101\\contracts\\ExerciceSolution.sol",
  "compiler": {
    "name": "solc",
    "version": "0.6.2+commit.bacdbe57.Emscripten.clang"
  },
  "schemaVersion": "3.4.10",
  "updatedAt": "2023-02-17T18:15:16.447Z",
  "networkType": "ethereum",
  "devdoc": {
    "methods": {}
  },
  "userdoc": {
    "methods": {}
  }
}